{
  "contractName": "MineOrYours",
  "abi": [
    {
      "anonymous": false,
      "inputs": [
        {
          "indexed": true,
          "internalType": "address",
          "name": "_from",
          "type": "address"
        },
        {
          "indexed": false,
          "internalType": "bool",
          "name": "isWinner",
          "type": "bool"
        },
        {
          "indexed": false,
          "internalType": "uint256",
          "name": "totalBet",
          "type": "uint256"
        }
      ],
      "name": "Winner",
      "type": "event"
    },
    {
      "inputs": [],
      "name": "currentChoice",
      "outputs": [
        {
          "internalType": "uint8",
          "name": "",
          "type": "uint8"
        }
      ],
      "stateMutability": "view",
      "type": "function",
      "constant": true
    },
    {
      "inputs": [],
      "name": "isWinner",
      "outputs": [
        {
          "internalType": "bool",
          "name": "",
          "type": "bool"
        }
      ],
      "stateMutability": "view",
      "type": "function",
      "constant": true
    },
    {
      "inputs": [],
      "name": "numOfPlayers",
      "outputs": [
        {
          "internalType": "uint8",
          "name": "",
          "type": "uint8"
        }
      ],
      "stateMutability": "view",
      "type": "function",
      "constant": true
    },
    {
      "inputs": [],
      "name": "owner",
      "outputs": [
        {
          "internalType": "address",
          "name": "",
          "type": "address"
        }
      ],
      "stateMutability": "view",
      "type": "function",
      "constant": true
    },
    {
      "inputs": [],
      "name": "totalBet",
      "outputs": [
        {
          "internalType": "uint128",
          "name": "",
          "type": "uint128"
        }
      ],
      "stateMutability": "view",
      "type": "function",
      "constant": true
    },
    {
      "inputs": [
        {
          "internalType": "address",
          "name": "newOwner",
          "type": "address"
        }
      ],
      "name": "transferOwnership",
      "outputs": [],
      "stateMutability": "nonpayable",
      "type": "function"
    },
    {
      "stateMutability": "payable",
      "type": "receive",
      "payable": true
    },
    {
      "inputs": [],
      "name": "addBet",
      "outputs": [],
      "stateMutability": "payable",
      "type": "function",
      "payable": true
    },
    {
      "inputs": [
        {
          "internalType": "address payable",
          "name": "_winner",
          "type": "address"
        }
      ],
      "name": "setWinner",
      "outputs": [],
      "stateMutability": "nonpayable",
      "type": "function"
    },
    {
      "inputs": [
        {
          "internalType": "uint256",
          "name": "withdrawAmount",
          "type": "uint256"
        }
      ],
      "name": "withdrawWin",
      "outputs": [],
      "stateMutability": "nonpayable",
      "type": "function"
    },
    {
      "inputs": [],
      "name": "getAllPlayers",
      "outputs": [
        {
          "internalType": "address[]",
          "name": "",
          "type": "address[]"
        }
      ],
      "stateMutability": "view",
      "type": "function",
      "constant": true
    },
    {
      "inputs": [
        {
          "internalType": "uint8",
          "name": "index",
          "type": "uint8"
        }
      ],
      "name": "getPlayerAtIndex",
      "outputs": [
        {
          "internalType": "address",
          "name": "",
          "type": "address"
        }
      ],
      "stateMutability": "view",
      "type": "function",
      "constant": true
    }
  ],
  "bytecode": "0x6080604052600233604051602001620000199190620001bb565b604051602081830303815290604052604051620000379190620001a2565b602060405180830381855afa15801562000055573d6000803e3d6000fd5b5050506040513d601f19601f820116820180604052508101906200007a919062000128565b60601c600660006101000a81548173ffffffffffffffffffffffffffffffffffffffff021916908373ffffffffffffffffffffffffffffffffffffffff160217905550348015620000ca57600080fd5b50336000806101000a81548173ffffffffffffffffffffffffffffffffffffffff021916908373ffffffffffffffffffffffffffffffffffffffff16021790555062000281565b600081519050620001228162000267565b92915050565b60006020828403121562000141576200014062000262565b5b6000620001518482850162000111565b91505092915050565b6200016581620001ee565b82525050565b60006200017882620001d8565b620001848185620001e3565b9350620001968185602086016200022c565b80840191505092915050565b6000620001b082846200016b565b915081905092915050565b6000602082019050620001d260008301846200015a565b92915050565b600081519050919050565b600081905092915050565b6000620001fb826200020c565b9050919050565b6000819050919050565b600073ffffffffffffffffffffffffffffffffffffffff82169050919050565b60005b838110156200024c5780820151818401526020810190506200022f565b838111156200025c576000848401525b50505050565b600080fd5b620002728162000202565b81146200027e57600080fd5b50565b610d7180620002916000396000f3fe6080604052600436106100a05760003560e01c8063d09a13be11610064578063d09a13be14610181578063d9fca7691461018b578063e070e096146101b4578063efa1c482146101f1578063f2fde38b1461021c578063fe5e185314610245576100a7565b80631a9b0b7c146100ac578063201c3845146100d75780638da5cb5b14610102578063903aecb41461012d578063c80b374514610158576100a7565b366100a757005b600080fd5b3480156100b857600080fd5b506100c1610270565b6040516100ce9190610980565b60405180910390f35b3480156100e357600080fd5b506100ec610283565b6040516100f991906109f6565b60405180910390f35b34801561010e57600080fd5b50610117610296565b6040516101249190610943565b60405180910390f35b34801561013957600080fd5b506101426102ba565b60405161014f91906109f6565b60405180910390f35b34801561016457600080fd5b5061017f600480360381019061017a91906107e2565b6102cd565b005b6101896103a3565b005b34801561019757600080fd5b506101b260048036038101906101ad91906107b5565b6104e5565b005b3480156101c057600080fd5b506101db60048036038101906101d6919061080f565b6104e8565b6040516101e89190610943565b60405180910390f35b3480156101fd57600080fd5b50610206610528565b604051610213919061095e565b60405180910390f35b34801561022857600080fd5b50610243600480360381019061023e9190610788565b610641565b005b34801561025157600080fd5b5061025a610712565b60405161026791906109db565b60405180910390f35b600160109054906101000a900460ff1681565b600060149054906101000a900460ff1681565b60008054906101000a900473ffffffffffffffffffffffffffffffffffffffff1681565b600660149054906101000a900460ff1681565b806064600160009054906101000a90046fffffffffffffffffffffffffffffffff16605a6102fb9190610a8c565b6103059190610a5b565b6fffffffffffffffffffffffffffffffff168110610358576040517f08c379a000000000000000000000000000000000000000000000000000000000815260040161034f906109bb565b60405180910390fd5b3373ffffffffffffffffffffffffffffffffffffffff166108fc839081150290604051600060405180830381858888f1935050505015801561039e573d6000803e3d6000fd5b505050565b6000339050600260008273ffffffffffffffffffffffffffffffffffffffff1673ffffffffffffffffffffffffffffffffffffffff16815260200190815260200160002060009054906101000a900460ff166104e257600080601481819054906101000a900460ff168092919061041990610ba2565b91906101000a81548160ff021916908360ff16021790555060ff1690506001600260008473ffffffffffffffffffffffffffffffffffffffff1673ffffffffffffffffffffffffffffffffffffffff16815260200190815260200160002060006101000a81548160ff021916908315150217905550816003600083815260200190815260200160002060006101000a81548173ffffffffffffffffffffffffffffffffffffffff021916908373ffffffffffffffffffffffffffffffffffffffff160217905550505b50565b50565b6000600360008360ff16815260200190815260200160002060009054906101000a900473ffffffffffffffffffffffffffffffffffffffff169050919050565b606060008060149054906101000a900460ff1660ff1667ffffffffffffffff81111561055757610556610c59565b5b6040519080825280602002602001820160405280156105855781602001602082028036833780820191505090505b50905060005b600060149054906101000a900460ff1660ff16811015610639576003600082815260200190815260200160002060009054906101000a900473ffffffffffffffffffffffffffffffffffffffff168282815181106105ec576105eb610c2a565b5b602002602001019073ffffffffffffffffffffffffffffffffffffffff16908173ffffffffffffffffffffffffffffffffffffffff1681525050808061063190610b59565b91505061058b565b508091505090565b60008054906101000a900473ffffffffffffffffffffffffffffffffffffffff1673ffffffffffffffffffffffffffffffffffffffff163373ffffffffffffffffffffffffffffffffffffffff16146106cf576040517f08c379a00000000000000000000000000000000000000000000000000000000081526004016106c69061099b565b60405180910390fd5b806000806101000a81548173ffffffffffffffffffffffffffffffffffffffff021916908373ffffffffffffffffffffffffffffffffffffffff16021790555050565b600160009054906101000a90046fffffffffffffffffffffffffffffffff1681565b60008135905061074381610cdf565b92915050565b60008135905061075881610cf6565b92915050565b60008135905061076d81610d0d565b92915050565b60008135905061078281610d24565b92915050565b60006020828403121561079e5761079d610c88565b5b60006107ac84828501610734565b91505092915050565b6000602082840312156107cb576107ca610c88565b5b60006107d984828501610749565b91505092915050565b6000602082840312156107f8576107f7610c88565b5b60006108068482850161075e565b91505092915050565b60006020828403121561082557610824610c88565b5b600061083384828501610773565b91505092915050565b60006108488383610854565b60208301905092915050565b61085d81610ad6565b82525050565b61086c81610ad6565b82525050565b600061087d82610a21565b6108878185610a39565b935061089283610a11565b8060005b838110156108c35781516108aa888261083c565b97506108b583610a2c565b925050600181019050610896565b5085935050505092915050565b6108d981610afa565b82525050565b60006108ec601483610a4a565b91506108f782610c8d565b602082019050919050565b600061090f601283610a4a565b915061091a82610cb6565b602082019050919050565b61092e81610b06565b82525050565b61093d81610b4c565b82525050565b60006020820190506109586000830184610863565b92915050565b600060208201905081810360008301526109788184610872565b905092915050565b600060208201905061099560008301846108d0565b92915050565b600060208201905081810360008301526109b4816108df565b9050919050565b600060208201905081810360008301526109d481610902565b9050919050565b60006020820190506109f06000830184610925565b92915050565b6000602082019050610a0b6000830184610934565b92915050565b6000819050602082019050919050565b600081519050919050565b6000602082019050919050565b600082825260208201905092915050565b600082825260208201905092915050565b6000610a6682610b06565b9150610a7183610b06565b925082610a8157610a80610bfb565b5b828204905092915050565b6000610a9782610b06565b9150610aa283610b06565b9250816fffffffffffffffffffffffffffffffff0483118215151615610acb57610aca610bcc565b5b828202905092915050565b6000610ae182610b22565b9050919050565b6000610af382610b22565b9050919050565b60008115159050919050565b60006fffffffffffffffffffffffffffffffff82169050919050565b600073ffffffffffffffffffffffffffffffffffffffff82169050919050565b6000819050919050565b600060ff82169050919050565b6000610b6482610b42565b91507fffffffffffffffffffffffffffffffffffffffffffffffffffffffffffffffff821415610b9757610b96610bcc565b5b600182019050919050565b6000610bad82610b4c565b915060ff821415610bc157610bc0610bcc565b5b600182019050919050565b7f4e487b7100000000000000000000000000000000000000000000000000000000600052601160045260246000fd5b7f4e487b7100000000000000000000000000000000000000000000000000000000600052601260045260246000fd5b7f4e487b7100000000000000000000000000000000000000000000000000000000600052603260045260246000fd5b7f4e487b7100000000000000000000000000000000000000000000000000000000600052604160045260246000fd5b600080fd5b7f596f75277265206e6f7420746865204f776e6572000000000000000000000000600082015250565b7f4e6f70652c20746f6f206d7563682062726f0000000000000000000000000000600082015250565b610ce881610ad6565b8114610cf357600080fd5b50565b610cff81610ae8565b8114610d0a57600080fd5b50565b610d1681610b42565b8114610d2157600080fd5b50565b610d2d81610b4c565b8114610d3857600080fd5b5056fea2646970667358221220a556d63119263361f6851cbe3090ecc4cb74a12bf34ddf94c87fa0e23c3cffed64736f6c63430008070033",
  "immutableReferences": {},
  "source": "// SPDX-License-Identifier: MIT\npragma solidity >=0.4.22 <0.9.0;\n\nimport \"./IMineOrYours.sol\";\nimport \"./Ownable.sol\";\n\ncontract MineOrYours is Ownable {\n    uint8 public numOfPlayers;\n    uint128 public totalBet;\n    bool public isWinner;\n    mapping(address => bool) private players;\n    mapping(uint256 => address) private lutPlayers;\n    address payable player1;\n    address payable player2;\n\n    enum Fires {\n        RED,\n        GREEN,\n        BLUE\n    }\n\n    address playerID = address(bytes20(sha256(abi.encode(msg.sender))));\n\n    uint8 public currentChoice;\n\n    // function setChoice(uint8 _choice) public {\n    //     playerChoice = Fires[_choice];\n    //     currentChoice = playerChoice;\n    // }\n\n    // function setCurrentChoice(Fires _playerChoice, uint8 _index)\n    //     public\n    //     requireTwoPlayer\n    // {}\n\n    // function chooseRed() public {\n    //     uint256 choice = Fires.RED;\n    // }\n\n    function setWinner(address payable _winner) public {}\n\n    event Winner(address indexed _from, bool isWinner, uint256 totalBet);\n\n    function addBet() public payable {\n        // require(totalBet >= 1, \"You need to bet something\");\n        address player = msg.sender;\n        // totalBet = msg.value;\n        if (!players[player]) {\n            uint256 index = numOfPlayers++;\n            players[player] = true;\n            lutPlayers[index] = player;\n        }\n    }\n\n    function setWinner() private {}\n\n    modifier LimitWin(uint256 withdrawAmount) {\n        require(withdrawAmount < (90 * totalBet) / 100, \"Nope, too much bro\");\n        _;\n    }\n\n    function withdrawWin(uint256 withdrawAmount)\n        external\n        LimitWin(withdrawAmount)\n    {\n        payable(msg.sender).transfer(withdrawAmount);\n    }\n\n    function getAllPlayers() external view returns (address[] memory) {\n        address[] memory _players = new address[](numOfPlayers);\n\n        for (uint256 i = 0; i < numOfPlayers; i++) {\n            _players[i] = lutPlayers[i];\n        }\n        return _players;\n    }\n\n    function getPlayerAtIndex(uint8 index) external view returns (address) {\n        return lutPlayers[index];\n    }\n\n    receive() external payable {}\n}\n",
  "sourcePath": "/Users/wzrd/mine-or-yours-js/contracts/MineOrYours.sol",
  "compiler": {
    "name": "solc",
    "version": "0.8.7+commit.e28d00a7.Emscripten.clang"
  },
  "schemaVersion": "3.4.3",
  "updatedAt": "2021-10-23T21:14:09.826Z",
  "networkType": "ethereum",
  "devdoc": {
    "kind": "dev",
    "methods": {},
    "version": 1
  },
  "userdoc": {
    "kind": "user",
    "methods": {},
    "version": 1
  }
}